:100000000C944E000C946D000C946D000C946D00DB
:100010000C946D000C946D000C946D000C946D00AC
:100020000C946D000C946D000C946D000C946D009C
:100030000C946D000C9436010C946D000C946D00C2
:100040000C946D000C946D000C946D000C946D007C
:100050000C946D000C946D000C946D000C946D006C
:100060000C946D000C946D000C946D000C946D005C
:100070000C946D000C946D000C946D000C946D004C
:100080000C946D000C946D000C946D008A02930228
:100090009802A002AB02B602C102CC0211241FBE1C
:1000A000CFEFD0E4DEBFCDBF11E0A0E0B1E0E6E1EC
:1000B000F9E000E00BBF02C007900D92A637B10730
:1000C000D9F711E0A6E7B1E001C01D92A738B1074A
:1000D000E1F70E9492030C9489040C940000CF93E2
:1000E000C82F8A3019F48DE00E946F009091C000F3
:1000F00095FFFCCFC093C60080E090E0CF910895BB
:1001000040E050E00CC000002F5F3F4F02C020E0F5
:1001100030E0273063E03607B4F34F5F5F4F481796
:100120005907ACF3089528988BB9299A00002998AB
:1001300082E090E00E948000089581E00E94930098
:100140000895813120F481580E94930008958155CB
:100150000E949300089584E690E00E94800088E366
:100160000E94930086E00E9493008FE00E9493001B
:1001700081E00E9493008AE090E00E948000089550
:10018000289A8BB9299A0000299881E090E00E9472
:1001900080000895EF92FF920F931F93CF93DF9308
:1001A000182FEB010E949D000EC001E0010F812F6E
:1001B0000E94A1007E018FEFE81AF80A88810E9450
:1001C000C000102FE70188818111EFCFDF91CF911F
:1001D0001F910F91FF90EF9008950F931F93CF936E
:1001E0008B01883088F4880F880F880F805C0E940C
:1001F0009300C0E007C0F801EC0FF11D80810E9460
:10020000C000CF5FC830B8F380E80E949300CF9160
:100210001F910F9108958BE0809381008DE790E00E
:10022000909389008093880082E080936F00109201
:100230008500109284008091100190911101A0918D
:100240001201B091130180937D0190937E01A093E0
:100250007F01B09380018FB780688FBF089510929F
:100260008100089581E08093810108951F920F928B
:100270000FB60F9211240BB60F922F933F934F930B
:100280005F936F937F938F939F93AF93BF93EF93FE
:10029000FF9380917D0190917E01A0917F01B091AB
:1002A00080010197A109B10980937D0190937E019E
:1002B000A0937F01B0938001892B8A2B8B2B91F423
:1002C0000E9432018091100190911101A0911201C0
:1002D000B091130180937D0190937E01A0937F01E3
:1002E000B0938001FF91EF91BF91AF919F918F915A
:1002F0007F916F915F914F913F912F910F900BBE26
:100300000F900FBE0F901F9018956093100170937F
:100310001101809312019093130160937D017093FA
:100320007E0180937F019093800108950E94AB002D
:100330000E949D006EE571E081E00E94CA00089570
:10034000CF93DF93C82FD92F0E94AB000E949D004E
:100350006EE671E081E00E94CA0087E00E94A10081
:1003600080E38C0F0E94C0008C2F9D2FDF91CF91D6
:100370000895CF93DF93EC010E94AB000E949D0093
:100380006AE671E081E00E94CA008BE00E94A10051
:10039000809184010E94C000CE01DF91CF91089529
:1003A00080918501909186018230910509F450C0B9
:1003B00028F4009751F0019751F16EC083309105F8
:1003C000C1F0049709F463C067C01B990DC01D9B61
:1003D0000BC01A9B09C01C9B07C083E090E0909360
:1003E0008601809385015CC0109286011092850180
:1003F00057C01B9B07C081E090E0909386018093DB
:1004000085014EC0109286011092850149C01B994A
:100410000DC01D990BC01C9909C01A9907C084E032
:1004200090E090938601809385013AC080917C0191
:10043000882339F082E090E09093860180938501D3
:100440002FC081E090E0909386018093850128C0C1
:100450001B990DC01D990BC01C9909C01A9907C0A2
:1004600084E090E0909386018093850119C080918B
:100470007C01882339F082E090E09093860180939C
:1004800085010EC0109286011092850109C010925C
:1004900086011092850104C0109286011092850198
:1004A00080918501909186018130910551F030F065
:1004B0008230910579F0049799F008950E94960191
:1004C000089510927C0180917601909177010E94AD
:1004D000A00108958091840190E00E94B9010895DF
:1004E0000E9496010895019608950E941704837052
:1004F0009078992324F401978C6F9F6F0196019651
:1005000008958830910508F04EC0FC01EA5BFF4F6A
:100510000C94C3031B9982C01D9B80C01A9B7EC094
:100520001C9944C07BC01B9B44C082E090E076C015
:100530000E94750220917C012130F1F199276EC053
:100540001B993DC01D993EC01A993FC01C9B40C0DD
:1005500082E090E063C01B993EC01D993FC01C998A
:1005600040C01A9B41C082E090E058C01B993FC038
:100570001D9940C01C9941C01A9B42C082E090E086
:100580004DC01B9940C01D9941C01C9942C01A9B87
:1005900043C082E090E042C020917C0121113EC026
:1005A00082E090E03BC080E090E038C081E090E0E5
:1005B00035C080E090E032C087E090E02FC082E05C
:1005C00090E02CC082E090E029C082E090E026C05C
:1005D00080E090E023C082E090E020C082E090E0E4
:1005E0001DC082E090E01AC080E090E017C082E079
:1005F00090E014C082E090E011C082E090E00EC074
:1006000080E090E00BC082E090E008C082E090E0E3
:1006100005C082E090E002C080E090E08430910567
:1006200061F12CF4009761F0039769F0089586302A
:10063000910509F456C0DCF1079709F46CC00895E0
:1006400012B818B80895E8E0F1E070818181628104
:1006500053814481358126819781872B862B852B79
:10066000842B832B822B892B82B9E0E0F1E09681E9
:100670008781892388B983B10895E8E0F1E070812A
:100680008181628153814481358126819781872BC5
:10069000862B852B842B832B822B892B82B9E0E040
:1006A000F1E090818181892388B983B10895E8E0E0
:1006B000F1E090818181892B82B9E0E0F1E07081E5
:1006C000818162815381448135812681978187238D
:1006D00086238523842383238223892388B983B1B6
:1006E0000895E8E0F1E096818781892B82B9E0E006
:1006F000F1E070818181628153814481358126815D
:100700009781872386238523842383238223892338
:1007100088B983B1089580917601909177010E9404
:10072000B90108958FEF81B912B887B918B893E469
:1007300094B99CE995B98AB91BB80E940B0168EE7F
:1007400073E080E090E00E94850185E10E94A100B5
:1007500064E471E080E00E94ED0080E00E94C0004F
:1007600085E10E94A10064E471E080E00E94ED0058
:1007700080E00E94C00002C010928101809181013E
:100780008823D1F3EDCFEE0FFF1F0024001C0BBE1A
:100790000790F691E02D09948F929F92AF92BF92AD
:1007A000CF92DF92EF92FF92CF93DF93EC016881BB
:1007B00079818A819B81611571058105910521F4FB
:1007C00064E279ED8BE597E02DE133EF41E050E015
:1007D0000E94390449015A019B01AC01A7EAB1E426
:1007E0000E9426046B017C01ACEEB4EFA5019401DC
:1007F0000E943404DC01CB018C0D9D1DAE1DBF1D7C
:10080000B7FF03C00197A109B04888839983AA83E1
:10081000BB839F77DF91CF91FF90EF90DF90CF90D8
:10082000BF90AF909F908F9008950C94CC038AE571
:1008300091E00C94CC03A0E0B0E080935A01909337
:100840005B01A0935C01B0935D0108950E94580480
:10085000A59F900DB49F900DA49F800D911D112414
:100860000895B7FF0C9426040E942604821B930B64
:100870000895052E97FB1EF400940E94500457FD26
:1008800007D00E94670407FC03D04EF40C94500478
:1008900050954095309521953F4F4F4F5F4F0895AC
:1008A00090958095709561957F4F8F4F9F4F0895DC
:1008B000A29FB001B39FC001A39F700D811D1124A1
:1008C000911DB29F700D811D1124911D0895A1E20B
:1008D0001A2EAA1BBB1BFD010DC0AA1FBB1FEE1FBA
:1008E000FF1FA217B307E407F50720F0A21BB30B05
:1008F000E40BF50B661F771F881F991F1A9469F781
:1009000060957095809590959B01AC01BD01CF01DC
:060910000895F894FFCFEA
:10091600FEFDFBF7EFDFBF7F0102040810204080D9
:10092600010000001F0703030303071F0000000068
:1009360000180E030000000000030E1800040A153C
:10094600150A040000001F00001F00001F1C1818D5
:1009560018181C1F0A040A1F0E040A1100000002C0
:10096600000000006F00000000000100000075702C
:1009760020746F20737461727400686967687363AA
:060986006F72653A2000CB
:00000001FF
