:100000000C9446000C9465000C9465000C946500FB
:100010000C9465000C9465000C9465000C946500CC
:100020000C9465000C9465000C9465000C946500BC
:100030000C9465000C9410010C9465000C94650000
:100040000C9465000C9465000C9465000C9465009C
:100050000C9465000C9465000C9465000C9465008C
:100060000C9465000C9465000C9465000C9465007C
:100070000C9465000C9465000C9465000C9465006C
:100080000C9465000C9465000C94650011241FBE4F
:10009000CFEFD0E4DEBFCDBF11E0A0E0B1E0E4EFF0
:1000A000F7E000E00BBF02C007900D92A034B1074B
:1000B000D9F711E0A0E4B1E001C01D92A335B1076A
:1000C000E1F70E945F020C94F8030C94000040E0FA
:1000D00050E00CC000002F5F3F4F02C020E030E036
:1000E000273063E03607B4F34F5F5F4F4817590777
:1000F000ACF3089528988BB9299A0000299882E0DA
:1001000090E00E946700089581E00E947A000895BF
:10011000813120F481580E947A00089581550E940F
:100120007A00089584E690E00E94670088E30E94C8
:100130007A0086E00E947A008FE00E947A0081E0D7
:100140000E947A008AE090E00E9467000895289A51
:100150008BB9299A0000299881E090E00E946700FD
:100160000895EF92FF920F931F93CF93DF93182F71
:10017000EB010E9484000EC001E0010F812F0E945C
:1001800088007E018FEFE81AF80A88810E94A70094
:10019000102FE70188818111EFCFDF91CF911F915F
:1001A0000F91FF90EF900895CF93C82F8A3019F4E4
:1001B0008DE00E94D4009091C00095FFFCCFC093C9
:1001C000C60080E090E0CF9108958BE0809381009D
:1001D0008DE790E0909389008093880082E080937F
:1001E0006F00109285001092840080911001909110
:1001F0001101A0911201B0911301809348019093D5
:100200004901A0934A01B0934B018FB780688FBF1B
:10021000089510928100089581E080934C01089523
:100220001F920F920FB60F9211240BB60F922F93BD
:100230003F934F935F936F937F938F939F93AF936E
:10024000BF93EF93FF938091480190914901A09152
:100250004A01B0914B010197A109B109809348016E
:1002600090934901A0934A01B0934B01892B8A2BAB
:100270008B2B91F40E940C0180911001909111013F
:10028000A0911201B091130180934801909349010C
:10029000A0934A01B0934B01FF91EF91BF91AF91B1
:1002A0009F918F917F916F915F914F913F912F918E
:1002B0000F900BBE0F900FBE0F901F90189560937C
:1002C00010017093110180931201909313016093B8
:1002D00048017093490180934A0190934B0108951E
:1002E0000E9492000E94840062E271E081E00E941C
:1002F000B10008950E9492000E94840064E371E0BE
:1003000081E00E94B1008BE00E948800809146014C
:1003100090E00E94A70008958091510190915201B0
:100320008130910509F120F08230910541F131C011
:100330001B990DC01D9B0BC01E9B09C01C9B07C0B9
:1003400081E090E0909352018093510122C01B996B
:1003500020C01C991EC01E9B1CC01D9B1AC0109261
:1003600052011092510115C020914701222311F032
:1003700082E090E090935201809351010AC0209155
:100380004701211102C080E090E0909352018093D8
:10039000510180915101909152018130910539F0C4
:1003A00018F0029739F008950E9470010895109294
:1003B000470108950E947A0108950895CF92DF922F
:1003C000EF92FF926B017C0120914D0130914E0123
:1003D00040914F01509150010E947F02882309F4FF
:1003E00058C020E030E0A901C701B6010E947F0299
:1003F000811106C0E1E9F0E080818870808305C04A
:10040000E1E9F0E080818360808328E539E344E717
:100410005FE3C701B6010E947F0288233CF48FEF9F
:100420009FEF909399008093980027C020E034E2DA
:1004300044EF56E4C701B6010E94910318162CF44C
:10044000109299001092980018C020E030E040E02F
:1004500053E4C701B6010E9495039B01AC0160E023
:1004600074E284EF9AE40E9483020E94EB026150DE
:100470007109709399006093980010929500109202
:100480009400C0924D01D0924E01E0924F01F09243
:100490005001FF90EF90DF90CF90089580E480931B
:1004A000900088E08093910060E070E0CB010E94B2
:1004B000DE010895109290001092910008958FEF40
:1004C00081B912B887B918B890EE94B99FE195B97F
:1004D0008AB91BB80E94E50064E670E080E090E015
:1004E0000E945F01E8E0F1E090818181892B82B96F
:1004F000E0E0F1E090818181892388B9F3CF9CD03D
:1005000008F481E008950CD0D2C0CAD040F0C1D028
:1005100030F021F45F3F19F0B3C05111FCC0B6C0F8
:10052000D7D098F39923C9F35523B1F3951B550BF5
:10053000BB27AA2762177307840738F09F5F5F4FB6
:10054000220F331F441FAA1FA9F333D00E2E3AF0F7
:10055000E0E830D091505040E695001CCAF729D011
:10056000FE2F27D0660F771F881FBB1F2617370760
:100570004807AB07B0E809F0BB0B802DBF01FF2790
:1005800093585F4F2AF09E3F510568F079C0C3C071
:100590005F3FECF3983EDCF3869577956795B795CA
:1005A000F7959F5FC9F7880F911D9695879597F9E5
:1005B0000895E1E0660F771F881FBB1F621773075E
:1005C0008407BA0720F0621B730B840BBA0BEE1F73
:1005D00088F7E095089504D06894B1119CC00895FF
:1005E0007FD088F09F5790F0B92F9927B751A0F08E
:1005F000D1F0660F771F881F991F1AF0BA95C9F7B7
:1006000012C0B13081F086D0B1E0089583C0672F69
:10061000782F8827B85F39F0B93FCCF38695779566
:100620006795B395D9F73EF490958095709561954F
:100630007F4F8F4F9F4F0895990F0008550FAA0BBA
:10064000E0E8FEEF16161706E807F907C0F01216E5
:100650001306E407F50798F0621B730B840B950BE8
:1006600039F40A2661F0232B242B252B21F408953D
:100670000A2609F4A140A6958FEF811D811D0895DA
:1006800097F99F6780E870E060E008959FEF80EC45
:10069000089500240A9416161706180609060895E8
:1006A00000240A9412161306140605060895092E4E
:1006B0000394000C11F4882352F0BB0F40F4BF2BBD
:1006C00011F460FF04C06F5F7F4F8F4F9F4F0895FD
:1006D00057FD9058440F551F59F05F3F71F04795F3
:1006E000880F97FB991F61F09F3F79F087950895D8
:1006F000121613061406551FF2CF4695F1DF08C0F7
:10070000161617061806991FF1CF86957105610513
:1007100008940895E894BB2766277727CB0197F9BB
:1007200008958ADF08F48FEF08950BD0C0CFB1DFB2
:1007300028F0B6DF18F0952309F0A2CFA7CF112437
:10074000EACFC6DFA0F3959FD1F3950F50E0551F78
:10075000629FF001729FBB27F00DB11D639FAA2716
:10076000F00DB11DAA1F649F6627B00DA11D661F65
:10077000829F2227B00DA11D621F739FB00DA11D86
:10078000621F839FA00D611D221F749F3327A00D40
:10079000611D231F849F600D211D822F762F6A2FDC
:1007A00011249F5750408AF0E1F088234AF0EE0F61
:1007B000FF1FBB1F661F771F881F91505040A9F76E
:1007C0009E3F510570F05CCFA6CF5F3FECF3983EA3
:1007D000DCF3869577956795B795F795E7959F5FD5
:1007E000C1F7FE2B880F911D9695879597F908956F
:0407F000F894FFCFAB
:1007F400FEFDFBF7EFDFBF7F0102040810204080FD
:10080400010000000000000200000000D40000000D
:100814000000507265737320757020746F207374B8
:10082400617274004869676873636F72653A200087
:00000001FF
