:100000000C9446000C9465000C9465000C946500FB
:100010000C9465000C9465000C9465000C946500CC
:100020000C9465000C9465000C9465000C946500BC
:100030000C9465000C942E010C9465000C946500E2
:100040000C9465000C9465000C9465000C9465009C
:100050000C9465000C9465000C9465000C9465008C
:100060000C9465000C9465000C9465000C9465007C
:100070000C9465000C9465000C9465000C9465006C
:100080000C9465000C9465000C94650011241FBE4F
:10009000CFEFD0E4DEBFCDBF11E0A0E0B1E0EEEFE6
:1000A000FAE000E00BBF02C007900D92AE34B1073A
:1000B000D9F711E0AEE4B1E001C01D92AF35B10750
:1000C000E1F70E9424030C947D050C940000CF936B
:1000D000C82F8A3019F48DE00E9467009091C0000B
:1000E00095FFFCCFC093C60080E090E0CF910895CB
:1000F00040E050E00CC000002F5F3F4F02C020E006
:1001000030E0273063E03607B4F34F5F5F4F4817A6
:100110005907ACF3089528988BB9299A00002998BB
:1001200082E090E00E947800089581E00E948B00B8
:100130000895813120F481580E948B0008958155E3
:100140000E948B00089584E690E00E94780088E386
:100150000E948B0086E00E948B008FE00E948B0043
:1001600081E00E948B008AE090E00E947800089570
:10017000289A8BB9299A0000299881E090E00E9482
:1001800078000895EF92FF920F931F93CF93DF9320
:10019000182FEB010E9495000EC001E0010F812F86
:1001A0000E9499007E018FEFE81AF80A88810E9468
:1001B000B800102FE70188818111EFCFDF91CF9137
:1001C0001F910F91FF90EF9008950F931F93CF937E
:1001D0008B01883088F4880F880F880F805C0E941C
:1001E0008B00C0E007C0F801EC0FF11D80810E9478
:1001F000B800CF5FC830B8F380E80E948B00CF9181
:100200001F910F9108958BE0809381008DE790E01E
:10021000909389008093880082E080936F00109211
:100220008500109284008091120190911301A09199
:100230001401B09115018093530190935401A09340
:100240005501B09356018FB780688FBF0895109203
:100250008100089581E08093570108951F920F92C5
:100260000FB60F9211240BB60F922F933F934F931B
:100270005F936F937F938F939F93AF93BF93EF930E
:10028000FF938091530190915401A0915501B09139
:1002900056010197A109B10980935301909354012C
:1002A000A0935501B0935601892B8A2B8B2B91F487
:1002B0000E942A018091120190911301A0911401D2
:1002C000B09115018093530190935401A09355016F
:1002D000B0935601FF91EF91BF91AF919F918F9194
:1002E0007F916F915F914F913F912F910F900BBE36
:1002F0000F900FBE0F901F9018956093120170938E
:10030000130180931401909315016093530170932E
:100310005401809355019093560108950E94A300C3
:100320000E94950060E371E081E00E94C2000895A0
:10033000CF93DF93C82FD92F0E94A3000E9495006E
:1003400066E471E081E00E94C20087E00E949900AB
:1003500080E38C0F0E94B8008C2F9D2FDF91CF91EE
:100360000895CF93DF93EC010E94A3000E949500B3
:1003700062E471E081E00E94C2008BE00E9499007B
:1003800080915C010E94B800CE01DF91CF91089569
:10039000DC0187EE93E00197F1F700C000001B99A4
:1003A00018C0E8E0F1E0708191818281638154811D
:1003B000458136812781972B982B962B952B942B53
:1003C000932B922B92B9E0E0F1E0868197819823FC
:1003D00098B9CD01089580915D0190915E018230C0
:1003E000910509F44FC028F4009751F0019749F1A5
:1003F0006DC083309105C1F0049709F462C066C0F6
:100400001B990DC01D9B0BC01A9B09C01C9B07C0EC
:1004100083E090E090935E0180935D015BC0109259
:100420005E0110925D0156C01B9B07C081E090E009
:1004300090935E0180935D0104C010925E01109262
:100440005D011B990DC01D990BC01C9909C01A991B
:1004500007C084E090E090935E0180935D013AC014
:1004600080915201882339F082E090E090935E0100
:1004700080935D012FC081E090E090935E018093B6
:100480005D0128C01B990DC01D990BC01C9909C0A6
:100490001A9907C084E090E090935E0180935D011B
:1004A00019C080915201882339F082E090E0909346
:1004B0005E0180935D010EC010925E0110925D019D
:1004C00009C010925E0110925D0104C010925E019D
:1004D00010925D0180915D0190915E0181309105E6
:1004E00051F030F082309105A9F00497C9F00895D9
:1004F0000E948E01089510925201809110019091F6
:1005000011010E94C80180911001909111010E9477
:100510009801089580915C0190E00E94B1010895D6
:100520000E948E0112B818B80895019608950E948D
:100530000B0583709078992324F401978C6F9F6F3B
:10054000019601960895CF92DF92EF92FF926B0190
:100550007C01209158013091590140915A015091EC
:100560005B010E944703882309F458C020E030E073
:10057000A901C701B6010E944703811106C0E1E944
:10058000F0E080818870808305C0E1E9F0E080813F
:100590008360808328E539E344E75FE3C701B60160
:1005A0000E94470388233CF48FEF9FEF90939900BC
:1005B0008093980027C020E034E244EF56E4C7015E
:1005C000B6010E94590418162CF41092990010924A
:1005D000980018C020E030E040E053E4C701B601C5
:1005E0000E945D049B01AC0160E074E284EF9AE438
:1005F0000E944B030E94B3036150710970939900EC
:10060000609398001092950010929400C092580147
:10061000D0925901E0925A01F0925B01FF90EF9065
:10062000DF90CF90089580E48093900088E08093DD
:10063000910060E070E0CB010E94A3020895109247
:1006400090001092910008958FEF81B912B887B988
:1006500018B893E494B99CE995B98AB91BB80E947B
:10066000030168EE73E080E090E00E947D010E944B
:10067000130310925E0110925D010E94EB0102C013
:1006800010925701809157018823D1F3F6CF9CD067
:1006900008F481E008950CD0D2C0CAD040F0C1D097
:1006A00030F021F45F3F19F0B3C05111FCC0B6C067
:1006B000D7D098F39923C9F35523B1F3951B550B64
:1006C000BB27AA2762177307840738F09F5F5F4F25
:1006D000220F331F441FAA1FA9F333D00E2E3AF066
:1006E000E0E830D091505040E695001CCAF729D080
:1006F000FE2F27D0660F771F881FBB1F26173707CF
:100700004807AB07B0E809F0BB0B802DBF01FF27FE
:1007100093585F4F2AF09E3F510568F079C0C3C0DF
:100720005F3FECF3983EDCF3869577956795B79538
:10073000F7959F5FC9F7880F911D9695879597F953
:100740000895E1E0660F771F881FBB1F62177307CC
:100750008407BA0720F0621B730B840BBA0BEE1FE1
:1007600088F7E095089504D06894B1119CC008956D
:100770007FD088F09F5790F0B92F9927B751A0F0FC
:10078000D1F0660F771F881F991F1AF0BA95C9F725
:1007900012C0B13081F086D0B1E0089583C0672FD8
:1007A000782F8827B85F39F0B93FCCF386957795D5
:1007B0006795B395D9F73EF49095809570956195BE
:1007C0007F4F8F4F9F4F0895990F0008550FAA0B29
:1007D000E0E8FEEF16161706E807F907C0F0121654
:1007E0001306E407F50798F0621B730B840B950B57
:1007F00039F40A2661F0232B242B252B21F40895AC
:100800000A2609F4A140A6958FEF811D811D089548
:1008100097F99F6780E870E060E008959FEF80ECB3
:10082000089500240A941616170618060906089556
:1008300000240A9412161306140605060895092EBC
:100840000394000C11F4882352F0BB0F40F4BF2B2B
:1008500011F460FF04C06F5F7F4F8F4F9F4F08956B
:1008600057FD9058440F551F59F05F3F71F0479561
:10087000880F97FB991F61F09F3F79F08795089546
:10088000121613061406551FF2CF4695F1DF08C065
:10089000161617061806991FF1CF86957105610582
:1008A00008940895E894BB2766277727CB0197F92A
:1008B00008958ADF08F48FEF08950BD0C0CFB1DF21
:1008C00028F0B6DF18F0952309F0A2CFA7CF1124A6
:1008D000EACFC6DFA0F3959FD1F3950F50E0551FE7
:1008E000629FF001729FBB27F00DB11D639FAA2785
:1008F000F00DB11DAA1F649F6627B00DA11D661FD4
:10090000829F2227B00DA11D621F739FB00DA11DF4
:10091000621F839FA00D611D221F749F3327A00DAE
:10092000611D231F849F600D211D822F762F6A2F4A
:1009300011249F5750408AF0E1F088234AF0EE0FCF
:10094000FF1FBB1F661F771F881F91505040A9F7DC
:100950009E3F510570F05CCFA6CF5F3FECF3983E11
:10096000DCF3869577956795B795F795E7959F5F43
:10097000C1F7FE2B880F911D9695879597F90895DD
:100980008F929F92AF92BF92CF92DF92EF92FF929F
:10099000CF93DF93EC01688179818A819B81611516
:1009A00071058105910521F464E279ED8BE597E00D
:1009B0002DE133EF41E050E00E942D0549015A013D
:1009C0009B01AC01A7EAB1E40E941A056B017C010E
:1009D000ACEEB4EFA50194010E942805DC01CB0127
:1009E0008C0D9D1DAE1DBF1DB7FF03C00197A10952
:1009F000B04888839983AA83BB839F77DF91CF9187
:100A0000FF90EF90DF90CF90BF90AF909F908F902E
:100A100008950C94C0048CE291E00C94C004A0E012
:100A2000B0E080932C0190932D01A0932E01B09300
:100A30002F0108950E944C05A59F900DB49F900D25
:100A4000A49F800D911D11240895B7FF0C941A05E1
:100A50000E941A05821B930B0895052E97FB1EF426
:100A600000940E94440557FD07D00E945B0507FCD7
:100A700003D04EF40C944405509540953095219543
:100A80003F4F4F4F5F4F08959095809570956195BA
:100A90007F4F8F4F9F4F0895A29FB001B39FC0011A
:100AA000A39F700D811D1124911DB29F700D811D9A
:100AB0001124911D0895A1E21A2EAA1BBB1BFD0152
:100AC0000DC0AA1FBB1FEE1FFF1FA217B307E4072D
:100AD000F50720F0A21BB30BE40BF50B661F771F85
:100AE000881F991F1A9469F7609570958095909565
:0E0AF0009B01AC01BD01CF010895F894FFCF2A
:100AFE00FEFDFBF7EFDFBF7F0102040810204080F0
:100B0E000100010000000A040A1F0E040A11000071
:100B1E00000200000000670000000000010000005D
:100B2E00707265737320757020746F2073746172A8
:0E0B3E0074006869676873636F72653A20001F
:00000001FF
