:100000000C9446000C945D000C945D000C945D0013
:100010000C945D000C945D000C945D000C945D00EC
:100020000C945D000C945D000C945D000C945D00DC
:100030000C945D000C945D000C945D000C945D00CC
:100040000C945D000C945D000C945D000C945D00BC
:100050000C945D000C945D000C945D000C945D00AC
:100060000C945D000C945D000C945D000C945D009C
:100070000C945D000C945D000C945D000C945D008C
:100080000C945D000C945D000C945D0011241FBE67
:10009000CFEFD0E4DEBFCDBF11E0A0E0B1E0E8EFEC
:1000A000F1E000E00BBF02C007900D92A432B1074F
:1000B000D9F70E94DD000C94FA000C94000040E097
:1000C00050E00CC000002F5F3F4F02C020E030E046
:1000D000273063E03607B4F34F5F5F4F4817590787
:1000E000ACF3089528988BB9299A0000299882E0EA
:1000F00090E00E945F00089581E00E9472000895E0
:10010000813120F481580E947200089581550E9427
:100110007200089584E690E00E945F0088E30E94E8
:10012000720086E00E9472008FE00E94720081E0FF
:100130000E9472008AE090E00E945F000895289A71
:100140008BB9299A0000299881E090E00E945F0015
:100150000895EF92FF920F931F93CF93DF93182F81
:10016000EB010E947C000EC001E0010F812F0E9474
:1001700080007E018FEFE81AF80A88810E949F00B4
:10018000102FE70188818111EFCFDF91CF911F916F
:100190000F91FF90EF900895CF93C82F8A3019F4F4
:1001A0008DE00E94CC009091C00095FFFCCFC093E1
:1001B000C60080E090E0CF9108958FEF81B912B82A
:1001C00087B918B884B915B88AB91BB80E948A00D3
:1001D0006EE171E081E00E94A900E8E0F1E0908129
:1001E0008181892B82B9E0E0F1E0908181818923CE
:0801F00088B9F3CFF894FFCFAA
:1001F800FEFDFBF7EFDFBF7F0102040810204080FF
:100208000000000200000000CC000000000048656B
:040218006C6C6F009B
:00000001FF
