:100000000C9456000C9475000C9475000C947500BB
:100010000C9475000C9475000C9475000C9475008C
:100020000C9475000C9475000C9475000C9475007C
:100030000C9475000C943C010C9475000C947500A4
:100040000C9475000C9475000C9475000C9475005C
:100050000C9475000C9475000C9475000C9475004C
:100060000C9475000C9475000C9475000C9475003C
:100070000C9475000C9475000C9475000C9475002C
:100080000C9475000C9475000C947500F50209032E
:1000900019032F03430357036B037F039F039A0442
:1000A000A203B103E7031D045304890411241FBEF6
:1000B000CFEFD0E4DEBFCDBF11E0A0E0B1E0EEE2D3
:1000C000FCE000E00BBF02C007900D92A836B1071C
:1000D000D9F711E0A8E6B1E001C01D92A139B1073E
:1000E000E1F70E949B040C9415060C940000F9990A
:1000F000FECF92BD81BD60BDFA9AF99A0895F99933
:10010000FECF92BD81BDF89A80B5089540E050E0E1
:100110000CC000002F5F3F4F02C020E030E02730CE
:1001200063E03607B4F34F5F5F4F48175907ACF3EE
:10013000089528988BB9299A0000299882E090E0C8
:100140000E948600089581E00E94990008958131FF
:1001500020F481580E949900089581550E949900C9
:10016000089584E690E00E94860088E30E9499004A
:1001700086E00E9499008FE00E94990081E00E9431
:1001800099008AE090E00E9486000895289A8BB931
:10019000299A0000299881E090E00E948600089545
:1001A000EF92FF920F931F93CF93DF93182FEB01E2
:1001B0000E94A3000EC001E0010F812F0E94A70042
:1001C0007E018FEFE81AF80A88810E94C600102F7E
:1001D000E70188818111EFCFDF91CF911F910F91BE
:1001E000FF90EF9008950F931F93CF938B0188306A
:1001F00088F4880F880F880F805C0E949900C0E007
:1002000007C0F801EC0FF11D80810E94C600CF5F8E
:10021000C830B8F380E80E949900CF911F910F91E8
:1002200008958BE0809381008DE790E090938900A2
:100230008093880082E080936F0010928500109276
:1002400084008091100190911101A0911201B09150
:10025000130180936B0190936C01A0936D01B09397
:100260006E018FB780688FBF089510928100089546
:1002700081E080936F0108951F920F920FB60F9245
:1002800011240BB60F922F933F934F935F936F936D
:100290007F938F939F93AF93BF93EF93FF9380913F
:1002A0006B0190916C01A0916D01B0916E0101976D
:1002B000A109B10980936B0190936C01A0936D012A
:1002C000B0936E01892B8A2B8B2B91F40E943801FD
:1002D0008091100190911101A0911201B091130130
:1002E00080936B0190936C01A0936D01B0936E01AC
:1002F000FF91EF91BF91AF919F918F917F916F91FE
:100300005F914F913F912F910F900BBE0F900FBEB9
:100310000F901F90189560931001709311018093B6
:1003200012019093130160936B0170936C018093A1
:100330006D0190936E0108950F931F93CF93DF93F8
:10034000B62FA72FF82FE92F022F132FD42FC52F49
:1003500004C0062F172FD82FC92F6B2F7A2F8F2F5E
:100360009E2F202F312F4D2F5C2F0E944F05B02F35
:10037000A12FFD2FEC2F611571058105910549F71E
:10038000602F712F8D2F9C2FDF91CF911F910F9197
:1003900008950E94B1000E94A30060E571E081E031
:1003A0000E94D0006CE371E080E00E94F30081E1E4
:1003B0000E94A70080E00E94C60064E371E081E033
:1003C0000E94F30082E10E94A70081E00E94C60023
:1003D0006CE271E082E00E94F30083E10E94A700DA
:1003E00082E00E94C60064E271E083E00E94F300B4
:1003F00084E10E94A70083E00E94C6006CE171E0E6
:1004000084E00E94F30085E10E94A70084E00E943E
:10041000C6006CE271E085E00E94F30086E10E9474
:10042000A70085E00E94C60064E371E086E00E94B8
:10043000F30087E10E94A70086E00E94C60064E105
:1004400071E087E00E94F30088E10E94A70087E046
:100450000E94C60008950E94A30060E671E081E05A
:100460000E94D00087E00E94A70080918A01805DF1
:100470000E94C60008950E94A3006CE571E081E02F
:100480000E94D0008BE00E94A70084E190E00E94CF
:100490007F0080938C0190E060918A0170918B01C4
:1004A000861797072CF484E190E00E94770006C03D
:1004B00084E190E00E947F0080938C0180918C0108
:1004C000805D0E94C600089580918F0190919001F7
:1004D00081309105D9F030F08230910539F10397E0
:1004E000E9F152C01A990DC01D9B0BC01C9B09C09D
:1004F0001B9B07C081E090E09093900180938F0157
:1005000047C01092900110928F0142C01A9B07C001
:1005100082E090E09093900180938F0139C081E058
:1005200090E09093900180938F0132C01A9904C09B
:100530001D9902C01B9B83B180916A01813039F4FF
:1005400083E090E09093900180938F0121C082E03E
:1005500090E09093900180938F011AC01A9904C083
:100560001D9902C01B9B83B180916A01813039F4CF
:1005700083E090E09093900180938F0109C01092E6
:10058000900110928F0104C01092900110928F017F
:1005900080918F01909190018230910541F08330DC
:1005A000910541F0892B41F40E94C90108950E94F0
:1005B0002B0208950E943B0208950E94C505837096
:1005C0009078992324F401978C6F9F6F019603967E
:1005D0000895E0918801F0918901E830F10508F073
:1005E0009EC0EA5BFF4F0C9471051A990DC01D9BCC
:1005F0000BC01C9B09C01B9B07C081E090E090933F
:100600008901809388018FC010928901109288011E
:100610008AC01A9B07C082E090E090938901809382
:10062000880181C081E090E09093890180938801E6
:100630007AC00E94DD029093870180938601209109
:100640006A01213039F487E090E09093890180932A
:10065000880169C0909389018093880164C01A99C8
:100660000BC01D9909C01C9907C01B9905C01092A9
:1006700089011092880157C082E090E0909389012F
:100680008093880150C01A990BC01D9909C01B990D
:1006900007C01C9905C0109289011092880143C0BF
:1006A00082E090E090938901809388013CC01A9980
:1006B0000BC01D9909C01B9907C01C9905C0109259
:1006C0008901109288012FC082E090E09093890107
:1006D0008093880128C01A990BC01D9909C01B99E5
:1006E00007C01C9905C010928901109288011BC097
:1006F00082E090E0909389018093880114C08091FA
:100700006A01811105C010928901109288010BC005
:1007100087E090E0909389018093880104C0109253
:10072000890110928801E0918801F0918901E830F7
:10073000F10508F0FFC0E25BFF4F0C94710512B8A1
:1007400018B8089510928B0110928A018091680167
:10075000909169014E970CF4EDC081E080936A019D
:100760000895E8E0F1E070818181628153814481E4
:10077000358126819781872B862B852B842B832B94
:10078000822B892B82B9E0E0F1E096818781892371
:1007900088B98091680190916901019690936901EF
:1007A000809368012FE38DE093E0215080409040DA
:1007B000E1F700C000001A99BDC080918A019091B4
:1007C0008B01019690938B0180938A010895E8E054
:1007D000F1E070818181628153814481358126817C
:1007E0009781872B862B852B842B832B822B892B20
:1007F00082B9E0E0F1E090818181892388B980911C
:100800006801909169010196909369018093680154
:100810002FE38DE093E0215080409040E1F700C04D
:1008200000001D9987C080918A0190918B010196EB
:1008300090938B0180938A010895E8E0F1E0908124
:100840008181892B82B9E0E0F1E070818181628150
:10085000538144813581268197818723862385238F
:10086000842383238223892388B98091680190910E
:100870006901019690936901809368012FE38DE0EF
:1008800093E0215080409040E1F700C000001B99A8
:1008900051C080918A0190918B01019690938B01B8
:1008A00080938A010895E8E0F1E096818781892BA1
:1008B00082B9E0E0F1E070818181628153814481FD
:1008C000358126819781872386238523842383236B
:1008D0008223892388B980916801909169010196EA
:1008E00090936901809368012FE38DE093E021509C
:1008F00080409040E1F700C000001C991BC080912F
:100900008A0190918B01019690938B0180938A01CB
:1009100008950E943B0210926901109268012FE72E
:1009200084E89EE1215080409040E1F700C0000043
:1009300010926A010895CF93DF9300D000D0CDB715
:10094000DEB78FEF81B912B887B918B893EC94B9B4
:100950009CE395B98AB91BB8EBE7F1E0FA83E98328
:1009600080E791E09C838B8381809280A380B48018
:1009700001E010E014C0F801EE0FFF1FEC0FFD1FA7
:100980000180F281E02D2181328143815481C501B2
:10099000B4010E949C014B015C010F5F1F4F0230AC
:1009A000110548F3EBE7F1E0108284E690E0A0E067
:1009B000B0E081839283A383B48385839683A783E6
:1009C000B08724E632E032872187E0E7F1E0108249
:1009D00081839283A383B48385839683A783B0871F
:1009E00089EE92E092878187C501B4010E948B0154
:1009F0000E94110180916A01813021F412B818B867
:100A00000E943B0280916A018823D9F141C0F7011D
:100A1000EE0FFF1FEC0FFD1F01811281D80115960B
:100A20004D915D916D917C91189711968D919D914D
:100A30000D90BC91A02D481759076A077B0781F4D8
:100A4000D8011996ED91FC911A978C91992787FD01
:100A500090950995F8018083158216821782108679
:100A6000F80185819681A781B085880D991DAA1D01
:100A7000BB1D85839683A783B087FFEFEF1AFF0A1C
:100A800002C0E12CF12C82E0E816F10408F4BFCF9B
:100A900080916F018823E1F310926F01ABCFA1E247
:100AA0001A2EAA1BBB1BFD010DC0AA1FBB1FEE1FE8
:100AB000FF1FA217B307E407F50720F0A21BB30B33
:100AC000E40BF50B661F771F881F991F1A9469F7AF
:100AD00060957095809590959B01AC01BD01CF010B
:100AE0000895EE0FFF1F0024001C0BBE0790F69127
:100AF000E02D09948F929F92AF92BF92CF92DF9296
:100B0000EF92FF92CF93DF93EC01688179818A8124
:100B10009B81611571058105910521F464E279EDF0
:100B20008BE597E02DE133EF41E050E00E94E705CF
:100B300049015A019B01AC01A7EAB1E40E94D40526
:100B40006B017C01ACEEB4EFA50194010E94E205BB
:100B5000DC01CB018C0D9D1DAE1DBF1DB7FF03C079
:100B60000197A109B04888839983AA83BB839F77A3
:100B7000DF91CF91FF90EF90DF90CF90BF90AF903B
:100B80009F908F9008950C947A058CE491E00C94DA
:100B90007A05A0E0B0E080934C0190934D01A093C2
:100BA0004E01B0934F0108950E940606A59F900D37
:100BB000B49F900DA49F800D911D11240895B7FF3F
:100BC0000C94D4050E94D405821B930B0895052E26
:100BD00097FB1EF400940E94FE0557FD07D00E946B
:100BE0004F0507FC03D04EF40C94FE05509540953C
:100BF000309521953F4F4F4F5F4F089590958095C9
:100C0000709561957F4F8F4F9F4F0895A29FB001C0
:100C1000B39FC001A39F700D811D1124911DB29F30
:0E0C2000700D811D1124911D0895F894FFCFD1
:100C2E00FEFDFBF7EFDFBF7F0102040810204080BE
:100C3E00010000001F0703030303071F000000004D
:100C4E0000180E030000000000030E1800040A1521
:100C5E00150A040000001F00001F00001F1C1818BA
:100C6E0018181C1F0A040A1F0E040A1101000000A6
:100C7E00757020746F207374617274006869676890
:080C8E0073636F72653A2000E8
:00000001FF
