:100000000C9456000C9475000C9475000C947500BB
:100010000C9475000C9475000C9475000C9475008C
:100020000C9475000C9475000C9475000C9475007C
:100030000C9475000C943E010C9475000C947500A2
:100040000C9475000C9475000C9475000C9475005C
:100050000C9475000C9475000C9475000C9475004C
:100060000C9475000C9475000C9475000C9475003C
:100070000C9475000C9475000C9475000C9475002C
:100080000C9475000C9475000C94750016032A03EB
:1000900038034E0374039A03C003E603080478048C
:1000A00078040B0424043D0456046F0411241FBE7D
:1000B000CFEFD0E4DEBFCDBF11E0A0E0B1E0EEE2D3
:1000C000FCE000E00BBF02C007900D92A637B1071D
:1000D000D9F711E0A6E7B1E001C01D92AB39B10735
:1000E000E1F70E9481040C9415060C940000CF9354
:1000F000C82F8A3019F48DE00E9477009091C000DB
:1001000095FFFCCFC093C60080E090E0CF910895AA
:1001100040E050E00CC000002F5F3F4F02C020E0E5
:1001200030E0273063E03607B4F34F5F5F4F481786
:100130005907ACF3089528988BB9299A000029989B
:1001400082E090E00E948800089581E00E949B0078
:100150000895813120F481580E949B0008958155B3
:100160000E949B00089584E690E00E94880088E346
:100170000E949B0086E00E949B008FE00E949B00F3
:1001800081E00E949B008AE090E00E948800089530
:10019000289A8BB9299A0000299881E090E00E9462
:1001A00088000895EF92FF920F931F93CF93DF93F0
:1001B000182FEB010E94A5000EC001E0010F812F56
:1001C0000E94A9007E018FEFE81AF80A88810E9438
:1001D000C800102FE70188818111EFCFDF91CF9107
:1001E0001F910F91FF90EF9008950F931F93CF935E
:1001F0008B01883088F4880F880F880F805C0E94FC
:100200009B00C0E007C0F801EC0FF11D80810E9447
:10021000C800CF5FC830B8F380E80E949B00CF9140
:100220001F910F9108958BE0809381008DE790E0FE
:10023000909389008093880082E080936F001092F1
:100240008500109284008091100190911101A0917D
:100250001201B091130180937B0190937C01A093D4
:100260007D01B0937E018FB780688FBF0895109293
:100270008100089581E080937F0108951F920F927D
:100280000FB60F9211240BB60F922F933F934F93FB
:100290005F936F937F938F939F93AF93BF93EF93EE
:1002A000FF9380917B0190917C01A0917D01B091A1
:1002B0007E010197A109B10980937B0190937C0194
:1002C000A0937D01B0937E01892B8A2B8B2B91F417
:1002D0000E943A018091100190911101A0911201A8
:1002E000B091130180937B0190937C01A0937D01D9
:1002F000B0937E01FF91EF91BF91AF919F918F914C
:100300007F916F915F914F913F912F910F900BBE15
:100310000F900FBE0F901F9018956093100170936F
:100320001101809312019093130160937B017093EC
:100330007C0180937D0190937E0108950F931F931C
:10034000CF93DF93B62FA72FF82FE92F022F132F6C
:10035000D42FC52F04C0062F172FD82FC92F6B2FCE
:100360007A2F8F2F9E2F202F312F4D2F5C2F0E9401
:100370003905B02FA12FFD2FEC2F611571058105D7
:10038000910549F7602F712F8D2F9C2FDF91CF9111
:100390001F910F9108950E94B3000E94A5006EE581
:1003A00071E081E00E94D2006CE371E080E00E9485
:1003B000F50081E10E94A90080E00E94C80064E38A
:1003C00071E081E00E94F50082E10E94A90081E0D5
:1003D0000E94C8006CE271E082E00E94F50083E1B7
:1003E0000E94A90082E00E94C80064E271E083E0FC
:1003F0000E94F50084E10E94A90083E00E94C800E9
:100400006CE171E084E00E94F50085E10E94A900A2
:1004100084E00E94C8006CE271E085E00E94F50073
:1004200086E10E94A90085E00E94C80064E371E0B3
:1004300086E00E94F50087E10E94A90086E00E9404
:10044000C80064E171E087E00E94F50088E10E9445
:10045000A90087E00E94C80008950E94B3000E948E
:10046000A5006EE671E081E00E94D20087E00E9464
:10047000A90080917801805D0E94C80008950E94C3
:10048000B3000E94A5006AE671E081E00E94D200FC
:100490008BE00E94A90084E190E00E94BE05809359
:1004A000980190E060917801709179018617970723
:1004B0002CF484E190E00E94C60506C084E190E03F
:1004C0000E94BE058093980180919801805D0E94F2
:1004D000C80008958091990190919A018230910508
:1004E00009F450C028F4009751F0019751F16EC003
:1004F00083309105C1F0049709F463C067C01B996C
:100500000DC01D9B0BC01A9B09C01C9B07C083E03C
:1005100090E090939A01809399015CC010929A01A7
:100520001092990157C01B9B07C081E090E0909307
:100530009A01809399014EC010929A0110929901EC
:1005400049C01B990DC01D990BC01C9909C01A996F
:1005500007C084E090E090939A01809399013AC09B
:1005600080917A01882339F082E090E090939A019B
:10057000809399012FC081E090E090939A0180933D
:10058000990128C01B990DC01D990BC01C9909C069
:100590001A9907C084E090E090939A0180939901A2
:1005A00019C080917A01882339F082E090E090931D
:1005B0009A01809399010EC010929A0110929901AC
:1005C00009C010929A011092990104C010929A01E8
:1005D000109299018091990190919A018130910531
:1005E00039F018F0029739F008950E94CB01089570
:1005F0000E942D0208950E943F0208950E94AF05B7
:1006000083709078992324F401978C6F9F6F0196E3
:1006100001960895E0919601F0919701E830F10577
:1006200008F0E6C0EA5BFF4F0C945B051B990DC018
:100630001D9B0BC01A9B09C01C9B07C081E090E06A
:100640009093970180939601D7C0109297011092D2
:100650009601D2C01B9B07C082E090E09093970167
:1006600080939601C9C01092970110929601C4C060
:100670000E94FE02909377018093760120917A0187
:10068000213039F487E090E09093970180939601B0
:10069000B3C09093970180939601AEC01B990BC095
:1006A0001D9909C01A9907C01C9905C0109297019D
:1006B00010929601A1C01B9910C080917801909171
:1006C00079010196909379018093780182E090E01E
:1006D00090939701809396018FC082E090E0909371
:1006E00097018093960188C01B990BC01D9909C082
:1006F0001C9907C01A9905C0109297011092960193
:100700007BC01D9910C0809178019091790101966C
:10071000909379018093780182E090E09093970123
:100720008093960169C082E090E090939701809356
:10073000960162C01B990BC01D9909C01C9907C086
:100740001A9905C0109297011092960155C01C99F4
:1007500010C0809178019091790101969093790170
:100760008093780182E090E09093970180939601C6
:1007700043C082E090E090939701809396013CC043
:100780001B990BC01D9909C01C9907C01A9905C077
:1007900010929701109296012FC01A9910C0809163
:1007A0007801909179010196909379018093780175
:1007B00082E090E090939701809396011DC082E0C3
:1007C00090E0909397018093960116C080917A01F2
:1007D000811107C082E090E0909397018093960189
:1007E0000BC087E090E0909397018093960104C03E
:1007F0001092970110929601E0919601F091970165
:10080000E830F10508F072C0E25BFF4F0C945B0525
:1008100012B818B80895E8E0F1E070818181628132
:1008200053814481358126819781872B862B852BA7
:10083000842B832B822B892B82B9E0E0F1E0968117
:100840008781892388B90895E8E0F1E0708181818A
:10085000628153814481358126819781872B862B44
:10086000852B842B832B822B892B82B9E0E0F1E04E
:1008700090818181892388B90895E8E0F1E0908131
:100880008181892B82B9E0E0F1E070818181628110
:10089000538144813581268197818723862385234F
:1008A000842383238223892388B90895E8E0F1E033
:1008B00096818781892B82B9E0E0F1E070818181A6
:1008C00062815381448135812681978187238623E4
:1008D0008523842383238223892388B908958091E3
:1008E0007801909179010E943F02089512B818B8DA
:1008F000089590E00E94C605089590E00E94BE050C
:100900000895CF93DF9300D000D0CDB7DEB78FEF3F
:1009100081B912B887B918B893E494B99CE995B92C
:100920008AB91BB8EBE8F1E0FA83E98380E891E04B
:100930009C838B8381809280A380B48001E010E04F
:1009400014C0F801EE0FFF1FEC0FFD1F0180F281B4
:10095000E02D2181328143815481C501B4010E947F
:100960009E014B015C010F5F1F4F0230110548F3E0
:10097000EBE8F1E0108284E690E0A0E0B0E0818353
:100980009283A383B48385839683A783B0872AE663
:1009900032E032872187E0E8F1E0108281839283A0
:1009A000A383B48385839683A783B0878AE093E08B
:1009B0009287818764E670E080E090E00E948D017C
:1009C0000E94130180917A01813029F412B818B87D
:1009D0000E943F0206C0811104C00E946A020E9468
:1009E0000A03E12CF12C39C0F701EE0FFF1FEC0FC9
:1009F000FD1F01811281D80115964D915D916D9178
:100A00007C91189711968D919D910D90BC91A02D80
:100A1000481759076A077B0781F4D8011996ED91A9
:100A2000FC911A978C91992787FD90950995F8016B
:100A300080831582168217821086F801858196813F
:100A4000A781B085880D991DAA1DBB1D858396833E
:100A5000A783B087FFEFEF1AFF0A82E0E816F104E0
:100A600018F202C010927F0180917F018823D1F398
:100A7000A9CFA1E21A2EAA1BBB1BFD010DC0AA1F04
:100A8000BB1FEE1FFF1FA217B307E407F50720F0F7
:100A9000A21BB30BE40BF50B661F771F881F991F72
:100AA0001A9469F760957095809590959B01AC01BB
:100AB000BD01CF010895EE0FFF1F0024001C0BBEE7
:100AC0000790F691E02D09948F929F92AF92BF927A
:100AD000CF92DF92EF92FF92CF93DF93EC01688188
:100AE00079818A819B81611571058105910521F4C8
:100AF00064E279ED8BE597E02DE133EF41E050E0E2
:100B00000E94E70549015A019B01AC01A7EAB1E443
:100B10000E94D4056B017C01ACEEB4EFA5019401F9
:100B20000E94E205DC01CB018C0D9D1DAE1DBF1D99
:100B3000B7FF03C00197A109B04888839983AA83AE
:100B4000BB839F77DF91CF91FF90EF90DF90CF90A5
:100B5000BF90AF909F908F9008950C9464058AE5A4
:100B600091E00C946405A0E0B0E080935A0190936A
:100B70005B01A0935C01B0935D010895F999FECFEC
:100B800092BD81BDF89A992780B50895262FF999CD
:100B9000FECF1FBA92BD81BD20BD0FB6F894FA9A60
:100BA000F99A0FBE019608950E940606A59F900D22
:100BB000B49F900DA49F800D911D11240895B7FF3F
:100BC0000C94D4050E94D405821B930B0895052E26
:100BD00097FB1EF400940E94FE0557FD07D00E946B
:100BE000390507FC03D04EF40C94FE055095409552
:100BF000309521953F4F4F4F5F4F089590958095C9
:100C0000709561957F4F8F4F9F4F0895A29FB001C0
:100C1000B39FC001A39F700D811D1124911DB29F30
:0E0C2000700D811D1124911D0895F894FFCFD1
:100C2E00FEFDFBF7EFDFBF7F0102040810204080BE
:100C3E00010000001F0703030303071F000000004D
:100C4E0000180E030000000000030E1800040A1521
:100C5E00150A040000001F00001F00001F1C1818BA
:100C6E0018181C1F0A040A1F0E040A1100000002A5
:100C7E000000000077000000000001000000757009
:100C8E0020746F207374617274006869676873638F
:060C9E006F72653A2000B0
:00000001FF
