:100000000C944E000C946D000C946D000C946D00DB
:100010000C946D000C946D000C946D000C946D00AC
:100020000C946D000C946D000C946D000C946D009C
:100030000C946D000C9436010C946D000C946D00C2
:100040000C946D000C946D000C946D000C946D007C
:100050000C946D000C946D000C946D000C946D006C
:100060000C946D000C946D000C946D000C946D005C
:100070000C946D000C946D000C946D000C946D004C
:100080000C946D000C946D000C946D00D002D9029C
:10009000DE02E802F302FE020903140311241FBE6C
:1000A000CFEFD0E4DEBFCDBF11E0A0E0B1E0E6EDE0
:1000B000FAE000E00BBF02C007900D92A637B1072F
:1000C000D9F711E0A6E7B1E001C01D92A939B10747
:1000D000E1F70E94D9030C9469050C940000CF93BA
:1000E000C82F8A3019F48DE00E946F009091C000F3
:1000F00095FFFCCFC093C60080E090E0CF910895BB
:1001000040E050E00CC000002F5F3F4F02C020E0F5
:1001100030E0273063E03607B4F34F5F5F4F481796
:100120005907ACF3089528988BB9299A00002998AB
:1001300082E090E00E948000089581E00E94930098
:100140000895813120F481580E94930008958155CB
:100150000E949300089584E690E00E94800088E366
:100160000E94930086E00E9493008FE00E9493001B
:1001700081E00E9493008AE090E00E948000089550
:10018000289A8BB9299A0000299881E090E00E9472
:1001900080000895EF92FF920F931F93CF93DF9308
:1001A000182FEB010E949D000EC001E0010F812F6E
:1001B0000E94A1007E018FEFE81AF80A88810E9450
:1001C000C000102FE70188818111EFCFDF91CF911F
:1001D0001F910F91FF90EF9008950F931F93CF936E
:1001E0008B01883088F4880F880F880F805C0E940C
:1001F0009300C0E007C0F801EC0FF11D80810E9460
:10020000C000CF5FC830B8F380E80E949300CF9160
:100210001F910F9108958BE0809381008DE790E00E
:10022000909389008093880082E080936F00109201
:100230008500109284008091100190911101A0918D
:100240001201B09113018093790190937A01A093E8
:100250007B01B0937C018FB780688FBF08951092A7
:100260008100089581E080937D0108951F920F928F
:100270000FB60F9211240BB60F922F933F934F930B
:100280005F936F937F938F939F93AF93BF93EF93FE
:10029000FF938091790190917A01A0917B01B091B7
:1002A0007C010197A109B1098093790190937A01AA
:1002B000A0937B01B0937C01892B8A2B8B2B91F42B
:1002C0000E9432018091100190911101A0911201C0
:1002D000B09113018093790190937A01A0937B01EF
:1002E000B0937C01FF91EF91BF91AF919F918F915E
:1002F0007F916F915F914F913F912F910F900BBE26
:100300000F900FBE0F901F9018956093100170937F
:1003100011018093120190931301609379017093FE
:100320007A0180937B0190937C0108950F931F9332
:10033000CF93DF93B62FA72FF82FE92F022F132F7C
:10034000D42FC52F04C0062F172FD82FC92F6B2FDE
:100350007A2F8F2F9E2F202F312F4D2F5C2F0E9411
:100360008D04B02FA12FFD2FEC2F61157105810594
:10037000910549F7602F712F8D2F9C2FDF91CF9121
:100380001F910F9108950E94AB000E949D006EE5A1
:1003900071E081E00E94CA0081E10E94A10064E452
:1003A00071E080E00E94ED0008950E94AB000E9481
:1003B0009D006EE671E081E00E94CA0087E00E9425
:1003C000A10080917601805D0E94C0000895019691
:1003D00008950E94030583709078992324F401976F
:1003E0008C6F9F6F01960196089590E00E941A0508
:1003F000089590E00E94120508950E94AB000E94AB
:100400009D006AE671E081E00E94CA008BE00E94D4
:10041000A1008FEF0E94F90190E060917601709148
:1004200077018617970744F48FEF0E94F5018091BA
:1004300076018093960106C084E190E00E94120547
:1004400080939601809196010E94C000089580914A
:100450009701909198018230910509F450C028F4D9
:10046000009751F0019751F16EC083309105C1F0B2
:10047000049709F463C067C01B990DC01D9B0BC096
:100480001A9B09C01C9B07C083E090E090939801E1
:10049000809397015CC0109298011092970157C009
:1004A0001B9B07C081E090E0909398018093970197
:1004B0004EC0109298011092970149C01B990DC02F
:1004C0001D990BC01C9909C01A9907C084E090E0DF
:1004D00090939801809397013AC080917801882386
:1004E00039F082E090E090939801809397012FC0BB
:1004F00081E090E0909398018093970128C01B9928
:100500000DC01D990BC01C9909C01A9907C084E041
:1005100090E0909398018093970119C080917801A1
:10052000882339F082E090E09093980180939701BE
:100530000EC0109298011092970109C01092980174
:100540001092970104C01092980110929701809127
:100550009701909198018130910539F018F0029738
:1005600069F008950E94C301089510927801809166
:100570007601909177010E94D501089580919601AE
:1005800090E00E94FD010895CF93DF93EC01883045
:10059000910508F050C0FC01EA5BFF4F0C94AF04DA
:1005A0001B9981C01D9B7FC01A9B7DC01C9946C0B2
:1005B0007AC01B9B46C0C2E0D0E075C00E94E90132
:1005C00080917801813009F06EC0C7E0D0E06BC047
:1005D0001B993AC01D993BC01A993CC01C9B3DC059
:1005E000C2E0D0E060C01B993BC01D993CC01C9983
:1005F0003DC01A9B3EC0C2E0D0E055C01B993CC034
:100600001D993DC01C993EC01A9B3FC0C2E0D0E07E
:100610004AC01B993DC01D993EC01C993FC01A9B02
:1006200040C0C2E0D0E03FC08091780181113BC062
:10063000C2E0D0E038C0C0E0D0E035C0C1E0D0E0DA
:1006400032C0C0E0D0E02FC0C2E0D0E02CC0C2E099
:10065000D0E029C0C2E0D0E026C0C0E0D0E023C096
:10066000C2E0D0E020C0C2E0D0E01DC0C2E0D0E0D7
:100670001AC0C0E0D0E017C0C2E0D0E014C0C2E0B1
:10068000D0E011C0C2E0D0E00EC0C0E0D0E00BC0AE
:10069000C2E0D0E008C0C2E0D0E005C0C2E0D0E0D7
:1006A00002C0C0E0D0E0C430D10561F12CF4209745
:1006B00061F0239769F07AC0C630D10509F456C0BD
:1006C000DCF1279709F46CC071C012B818B86EC07D
:1006D000E8E0F1E07081818162815381448135815C
:1006E00026819781872B862B852B842B832B822B2E
:1006F000892B82B9E0E0F1E096818781892388B96E
:1007000083B154C0E8E0F1E070818181628153815E
:100710004481358126819781872B862B852B842BDD
:10072000832B822B892B82B9E0E0F1E090818181DB
:10073000892388B983B13AC0E8E0F1E090818181F2
:10074000892B82B9E0E0F1E070818181628153817F
:1007500044813581268197818723862385238423BD
:1007600083238223892388B983B120C0E8E0F1E0A4
:1007700096818781892B82B9E0E0F1E070818181E7
:100780006281538144813581268197818723862325
:100790008523842383238223892388B983B106C0D8
:1007A00080917601909177010E94FD01DF91CF91B8
:1007B0000895CF93DF9300D000D0CDB7DEB78FEF91
:1007C00081B912B887B918B893E494B99CE995B97E
:1007D0008AB91BB8E9E8F1E0FA83E9838EE791E092
:1007E0009C838B8381809280A380B48011E014C0AD
:1007F000E12FF0E0EE0FFF1FEC0FFD1F0180F281F3
:10080000E02D2181328143815481C501B4010E94D0
:1008100096014B015C011F5F123050F3E9E8F1E0F3
:10082000108284E690E0A0E0B0E081839283A3830D
:10083000B48385839683A783B08787E292E092870B
:100840008187EEE7F1E0108284EF91E0A0E0B0E074
:1008500081839283A383B48385839683A783B087A0
:1008600084EC92E092878187C501B4010E948501E2
:100870000E940B0180918901992787FD90950E9424
:10088000270280917E01992787FD90950E94C402DE
:10089000F12C38C0EF2DF0E0EE0FFF1FEC0FFD1F25
:1008A00001811281D80115964D915D916D917C91D8
:1008B000189711968D919D910D90BC91A02D481780
:1008C00059076A077B0781F4D8011996ED91FC91CD
:1008D0001A978C91992787FD90950995F801808347
:1008E0001582168217821086F80185819681A7816C
:1008F000B085880D991DAA1DBB1D85839683A7838E
:10090000B087F394F1E0FF1528F602C010927D0144
:1009100080917D018823D1F3ADCFA1E21A2EAA1BCD
:10092000BB1BFD010DC0AA1FBB1FEE1FFF1FA2179F
:10093000B307E407F50720F0A21BB30BE40BF50B9C
:10094000661F771F881F991F1A9469F76095709525
:10095000809590959B01AC01BD01CF010895EE0FEC
:10096000FF1F0024001C0BBE0790F691E02D099498
:100970008F929F92AF92BF92CF92DF92EF92FF92AF
:10098000CF93DF93EC01688179818A819B81611526
:1009900071058105910521F464E279ED8BE597E01D
:1009A0002DE133EF41E050E00E943B0549015A013F
:1009B0009B01AC01A7EAB1E40E9428056B017C0110
:1009C000ACEEB4EFA50194010E943605DC01CB0129
:1009D0008C0D9D1DAE1DBF1DB7FF03C00197A10962
:1009E000B04888839983AA83BB839F77DF91CF9197
:1009F000FF90EF90DF90CF90BF90AF909F908F903F
:100A000008950C94B8048AE591E00C94B804A0E031
:100A1000B0E080935A0190935B01A0935C01B09386
:100A20005D010895F999FECF92BD81BDF89A99278D
:100A300080B50895262FF999FECF1FBA92BD81BDCA
:100A400020BD0FB6F894FA9AF99A0FBE0196089550
:100A50000E945A05A59F900DB49F900DA49F800DF4
:100A6000911D11240895B7FF0C9428050E942805B4
:100A7000821B930B0895052E97FB1EF400940E9491
:100A8000520557FD07D00E948D0407FC03D04EF499
:100A90000C94520550954095309521953F4F4F4FFE
:100AA0005F4F089590958095709561957F4F8F4F1A
:100AB0009F4F0895A29FB001B39FC001A39F700DE7
:100AC000811D1124911DB29F700D811D1124911D56
:060AD0000895F894FFCF29
:100AD600FEFDFBF7EFDFBF7F010204081020408018
:100AE600010000001F0703030303071F00000000A7
:100AF60000180E030000000000030E1800040A157B
:100B0600150A040000001F00001F00001F1C181813
:100B160018181C1F0A040A1F0E040A1100000002FE
:100B2600000000006F00000000000100000075706A
:100B360020746F20737461727400686967687363E8
:060B46006F72653A200009
:00000001FF
